{
  "contractName": "Airbnb",
  "abi": [
    {
      "inputs": [
        {
          "internalType": "string",
          "name": "_name",
          "type": "string"
        }
      ],
      "stateMutability": "nonpayable",
      "type": "constructor"
    },
    {
      "anonymous": false,
      "inputs": [
        {
          "indexed": true,
          "internalType": "address",
          "name": "previousOwner",
          "type": "address"
        },
        {
          "indexed": true,
          "internalType": "address",
          "name": "newOwner",
          "type": "address"
        }
      ],
      "name": "OwnershipTransferred",
      "type": "event"
    },
    {
      "anonymous": false,
      "inputs": [
        {
          "indexed": false,
          "internalType": "string[]",
          "name": "datesBooked",
          "type": "string[]"
        },
        {
          "indexed": false,
          "internalType": "uint256",
          "name": "id",
          "type": "uint256"
        },
        {
          "indexed": false,
          "internalType": "address",
          "name": "booker",
          "type": "address"
        },
        {
          "indexed": false,
          "internalType": "string",
          "name": "city",
          "type": "string"
        },
        {
          "indexed": false,
          "internalType": "string",
          "name": "imgUrl",
          "type": "string"
        }
      ],
      "name": "newDatesBooked",
      "type": "event"
    },
    {
      "anonymous": false,
      "inputs": [
        {
          "indexed": false,
          "internalType": "string",
          "name": "name",
          "type": "string"
        },
        {
          "indexed": false,
          "internalType": "string",
          "name": "city",
          "type": "string"
        },
        {
          "indexed": false,
          "internalType": "string",
          "name": "lat",
          "type": "string"
        },
        {
          "indexed": false,
          "internalType": "string",
          "name": "long",
          "type": "string"
        },
        {
          "indexed": false,
          "internalType": "string",
          "name": "unoDescription",
          "type": "string"
        },
        {
          "indexed": false,
          "internalType": "string",
          "name": "dosDescription",
          "type": "string"
        },
        {
          "indexed": false,
          "internalType": "string",
          "name": "imgUrl",
          "type": "string"
        },
        {
          "indexed": false,
          "internalType": "uint256",
          "name": "maxGuests",
          "type": "uint256"
        },
        {
          "indexed": false,
          "internalType": "uint256",
          "name": "pricePerDay",
          "type": "uint256"
        },
        {
          "indexed": false,
          "internalType": "string[]",
          "name": "datesBooked",
          "type": "string[]"
        },
        {
          "indexed": false,
          "internalType": "uint256",
          "name": "id",
          "type": "uint256"
        },
        {
          "indexed": false,
          "internalType": "address",
          "name": "renter",
          "type": "address"
        }
      ],
      "name": "rentalCreated",
      "type": "event"
    },
    {
      "inputs": [],
      "name": "contractName",
      "outputs": [
        {
          "internalType": "string",
          "name": "",
          "type": "string"
        }
      ],
      "stateMutability": "view",
      "type": "function",
      "constant": true
    },
    {
      "inputs": [],
      "name": "owner",
      "outputs": [
        {
          "internalType": "address",
          "name": "",
          "type": "address"
        }
      ],
      "stateMutability": "view",
      "type": "function",
      "constant": true
    },
    {
      "inputs": [],
      "name": "renounceOwnership",
      "outputs": [],
      "stateMutability": "nonpayable",
      "type": "function"
    },
    {
      "inputs": [
        {
          "internalType": "uint256",
          "name": "",
          "type": "uint256"
        }
      ],
      "name": "rentalIds",
      "outputs": [
        {
          "internalType": "uint256",
          "name": "",
          "type": "uint256"
        }
      ],
      "stateMutability": "view",
      "type": "function",
      "constant": true
    },
    {
      "inputs": [
        {
          "internalType": "address",
          "name": "newOwner",
          "type": "address"
        }
      ],
      "name": "transferOwnership",
      "outputs": [],
      "stateMutability": "nonpayable",
      "type": "function"
    },
    {
      "inputs": [
        {
          "internalType": "string",
          "name": "name",
          "type": "string"
        },
        {
          "internalType": "string",
          "name": "city",
          "type": "string"
        },
        {
          "internalType": "string",
          "name": "lat",
          "type": "string"
        },
        {
          "internalType": "string",
          "name": "long",
          "type": "string"
        },
        {
          "internalType": "string",
          "name": "unoDescription",
          "type": "string"
        },
        {
          "internalType": "string",
          "name": "dosDescription",
          "type": "string"
        },
        {
          "internalType": "string",
          "name": "imgUrl",
          "type": "string"
        },
        {
          "internalType": "uint256",
          "name": "maxGuests",
          "type": "uint256"
        },
        {
          "internalType": "uint256",
          "name": "pricePerDay",
          "type": "uint256"
        },
        {
          "internalType": "string[]",
          "name": "datesBooked",
          "type": "string[]"
        }
      ],
      "name": "addRentals",
      "outputs": [],
      "stateMutability": "nonpayable",
      "type": "function"
    },
    {
      "inputs": [
        {
          "internalType": "uint256",
          "name": "id",
          "type": "uint256"
        },
        {
          "internalType": "string[]",
          "name": "newBookings",
          "type": "string[]"
        }
      ],
      "name": "addDatesBooked",
      "outputs": [],
      "stateMutability": "payable",
      "type": "function",
      "payable": true
    },
    {
      "inputs": [
        {
          "internalType": "uint256",
          "name": "id",
          "type": "uint256"
        }
      ],
      "name": "getRental",
      "outputs": [
        {
          "internalType": "string",
          "name": "",
          "type": "string"
        },
        {
          "internalType": "uint256",
          "name": "",
          "type": "uint256"
        },
        {
          "internalType": "string[]",
          "name": "",
          "type": "string[]"
        }
      ],
      "stateMutability": "view",
      "type": "function",
      "constant": true
    },
    {
      "inputs": [],
      "name": "getAllRentals",
      "outputs": [
        {
          "components": [
            {
              "internalType": "uint256",
              "name": "id",
              "type": "uint256"
            },
            {
              "internalType": "string",
              "name": "name",
              "type": "string"
            },
            {
              "internalType": "string",
              "name": "city",
              "type": "string"
            },
            {
              "internalType": "string",
              "name": "lat",
              "type": "string"
            },
            {
              "internalType": "string",
              "name": "long",
              "type": "string"
            },
            {
              "internalType": "string",
              "name": "unoDescription",
              "type": "string"
            },
            {
              "internalType": "string",
              "name": "dosDescription",
              "type": "string"
            },
            {
              "internalType": "string",
              "name": "imgUrl",
              "type": "string"
            },
            {
              "internalType": "uint256",
              "name": "maxGuests",
              "type": "uint256"
            },
            {
              "internalType": "uint256",
              "name": "pricePerDay",
              "type": "uint256"
            },
            {
              "internalType": "string[]",
              "name": "datesBooked",
              "type": "string[]"
            },
            {
              "internalType": "address",
              "name": "renter",
              "type": "address"
            }
          ],
          "internalType": "struct Airbnb.RentalInfo[]",
          "name": "",
          "type": "tuple[]"
        }
      ],
      "stateMutability": "view",
      "type": "function",
      "constant": true
    }
  ],
  "bytecode": "0x60806040523480156200001157600080fd5b50604051620032c8380380620032c88339818101604052810190620000379190620003e3565b6200006962000054620000ca640100000000026401000000009004565b620000d2640100000000026401000000009004565b80600190805190602001906200008192919062000196565b5033600260006101000a81548173ffffffffffffffffffffffffffffffffffffffff021916908373ffffffffffffffffffffffffffffffffffffffff1602179055505062000499565b600033905090565b60008060009054906101000a900473ffffffffffffffffffffffffffffffffffffffff169050816000806101000a81548173ffffffffffffffffffffffffffffffffffffffff021916908373ffffffffffffffffffffffffffffffffffffffff1602179055508173ffffffffffffffffffffffffffffffffffffffff168173ffffffffffffffffffffffffffffffffffffffff167f8be0079c531659141344cd1fd0a4f28419497f9722a3daafe3b4186f6b6457e060405160405180910390a35050565b828054620001a49062000463565b90600052602060002090601f016020900481019282620001c8576000855562000214565b82601f10620001e357805160ff191683800117855562000214565b8280016001018555821562000214579182015b8281111562000213578251825591602001919060010190620001f6565b5b50905062000223919062000227565b5090565b5b808211156200024257600081600090555060010162000228565b5090565b6000604051905090565b600080fd5b600080fd5b600080fd5b600080fd5b6000601f19601f8301169050919050565b7f4e487b7100000000000000000000000000000000000000000000000000000000600052604160045260246000fd5b620002af8262000264565b810181811067ffffffffffffffff82111715620002d157620002d062000275565b5b80604052505050565b6000620002e662000246565b9050620002f48282620002a4565b919050565b600067ffffffffffffffff82111562000317576200031662000275565b5b620003228262000264565b9050602081019050919050565b60005b838110156200034f57808201518184015260208101905062000332565b838111156200035f576000848401525b50505050565b60006200037c6200037684620002f9565b620002da565b9050828152602081018484840111156200039b576200039a6200025f565b5b620003a88482856200032f565b509392505050565b600082601f830112620003c857620003c76200025a565b5b8151620003da84826020860162000365565b91505092915050565b600060208284031215620003fc57620003fb62000250565b5b600082015167ffffffffffffffff8111156200041d576200041c62000255565b5b6200042b84828501620003b0565b91505092915050565b7f4e487b7100000000000000000000000000000000000000000000000000000000600052602260045260246000fd5b600060028204905060018216806200047c57607f821691505b6020821081141562000493576200049262000434565b5b50919050565b612e1f80620004a96000396000f3fe6080604052600436106100a3576000357c01000000000000000000000000000000000000000000000000000000009004806375d0c0dc1161007657806375d0c0dc146101455780638da5cb5b14610170578063deb38e791461019b578063ebfa74c9146101c4578063f2fde38b14610201576100a3565b80632a23bb72146100a8578063652bd29e146100c45780636ac2551d14610103578063715018a61461012e575b600080fd5b6100c260048036038101906100bd9190611a88565b61022a565b005b3480156100d057600080fd5b506100eb60048036038101906100e69190611ae4565b61048e565b6040516100fa93929190611cb4565b60405180910390f35b34801561010f57600080fd5b50610118610669565b6040516101259190611fc6565b60405180910390f35b34801561013a57600080fd5b50610143610ca9565b005b34801561015157600080fd5b5061015a610d31565b6040516101679190611fe8565b60405180910390f35b34801561017c57600080fd5b50610185610dbf565b6040516101929190612019565b60405180910390f35b3480156101a757600080fd5b506101c260048036038101906101bd9190612034565b610de8565b005b3480156101d057600080fd5b506101eb60048036038101906101e69190611ae4565b6112d5565b6040516101f891906121f3565b60405180910390f35b34801561020d57600080fd5b506102286004803603810190610223919061223a565b6112f9565b005b600354821061026e576040517f08c379a0000000000000000000000000000000000000000000000000000000008152600401610265906122b3565b60405180910390fd5b61027882826113f1565b6102b7576040517f08c379a00000000000000000000000000000000000000000000000000000000081526004016102ae90612345565b60405180910390fd5b8051670de0b6b3a764000060066000858152602001908152602001600020600901546102e39190612394565b6102ed9190612394565b341461032e576040517f08c379a000000000000000000000000000000000000000000000000000000000815260040161032590612460565b60405180910390fd5b60005b81518110156103b75760066000848152602001908152602001600020600a0182828151811061036357610362612480565b5b60200260200101519080600181540180825580915050600190039060005260206000200160009091909190915090805190602001906103a3929190611634565b5080806103af906124af565b915050610331565b50600260009054906101000a900473ffffffffffffffffffffffffffffffffffffffff1673ffffffffffffffffffffffffffffffffffffffff166108fc349081150290604051600060405180830381858888f19350505050158015610420573d6000803e3d6000fd5b507fdfcc683ac35013d595a2db07bcb6601a1bbc6c91dad13117fd60299c875c61b481833360066000878152602001908152602001600020600201600660008881526020019081526020016000206007016040516104829594939291906125ee565b60405180910390a15050565b60606000606060035484106104d8576040517f08c379a00000000000000000000000000000000000000000000000000000000081526004016104cf906122b3565b60405180910390fd5b600060066000868152602001908152602001600020905080600101816009015482600a0182805461050890612527565b80601f016020809104026020016040519081016040528092919081815260200182805461053490612527565b80156105815780601f1061055657610100808354040283529160200191610581565b820191906000526020600020905b81548152906001019060200180831161056457829003601f168201915b5050505050925080805480602002602001604051908101604052809291908181526020016000905b828210156106555783829060005260206000200180546105c890612527565b80601f01602080910402602001604051908101604052809291908181526020018280546105f490612527565b80156106415780601f1061061657610100808354040283529160200191610641565b820191906000526020600020905b81548152906001019060200180831161062457829003601f168201915b5050505050815260200190600101906105a9565b505050509050935093509350509193909250565b606060006106776005611544565b90506000808267ffffffffffffffff81111561069657610695611872565b5b6040519080825280602002602001820160405280156106cf57816020015b6106bc6116ba565b8152602001906001900390816106b45790505b50905060005b83811015610c9f5760006001826106ec9190612656565b9050600060066000838152602001908152602001600020905080604051806101800160405290816000820154815260200160018201805461072c90612527565b80601f016020809104026020016040519081016040528092919081815260200182805461075890612527565b80156107a55780601f1061077a576101008083540402835291602001916107a5565b820191906000526020600020905b81548152906001019060200180831161078857829003601f168201915b505050505081526020016002820180546107be90612527565b80601f01602080910402602001604051908101604052809291908181526020018280546107ea90612527565b80156108375780601f1061080c57610100808354040283529160200191610837565b820191906000526020600020905b81548152906001019060200180831161081a57829003601f168201915b5050505050815260200160038201805461085090612527565b80601f016020809104026020016040519081016040528092919081815260200182805461087c90612527565b80156108c95780601f1061089e576101008083540402835291602001916108c9565b820191906000526020600020905b8154815290600101906020018083116108ac57829003601f168201915b505050505081526020016004820180546108e290612527565b80601f016020809104026020016040519081016040528092919081815260200182805461090e90612527565b801561095b5780601f106109305761010080835404028352916020019161095b565b820191906000526020600020905b81548152906001019060200180831161093e57829003601f168201915b5050505050815260200160058201805461097490612527565b80601f01602080910402602001604051908101604052809291908181526020018280546109a090612527565b80156109ed5780601f106109c2576101008083540402835291602001916109ed565b820191906000526020600020905b8154815290600101906020018083116109d057829003601f168201915b50505050508152602001600682018054610a0690612527565b80601f0160208091040260200160405190810160405280929190818152602001828054610a3290612527565b8015610a7f5780601f10610a5457610100808354040283529160200191610a7f565b820191906000526020600020905b815481529060010190602001808311610a6257829003601f168201915b50505050508152602001600782018054610a9890612527565b80601f0160208091040260200160405190810160405280929190818152602001828054610ac490612527565b8015610b115780601f10610ae657610100808354040283529160200191610b11565b820191906000526020600020905b815481529060010190602001808311610af457829003601f168201915b505050505081526020016008820154815260200160098201548152602001600a8201805480602002602001604051908101604052809291908181526020016000905b82821015610bff578382906000526020600020018054610b7290612527565b80601f0160208091040260200160405190810160405280929190818152602001828054610b9e90612527565b8015610beb5780601f10610bc057610100808354040283529160200191610beb565b820191906000526020600020905b815481529060010190602001808311610bce57829003601f168201915b505050505081526020019060010190610b53565b505050508152602001600b820160009054906101000a900473ffffffffffffffffffffffffffffffffffffffff1673ffffffffffffffffffffffffffffffffffffffff1673ffffffffffffffffffffffffffffffffffffffff1681525050848681518110610c7057610c6f612480565b5b6020026020010181905250600185610c889190612656565b945050508080610c97906124af565b9150506106d5565b5080935050505090565b610cb1611552565b73ffffffffffffffffffffffffffffffffffffffff16610ccf610dbf565b73ffffffffffffffffffffffffffffffffffffffff1614610d25576040517f08c379a0000000000000000000000000000000000000000000000000000000008152600401610d1c906126f8565b60405180910390fd5b610d2f600061155a565b565b60018054610d3e90612527565b80601f0160208091040260200160405190810160405280929190818152602001828054610d6a90612527565b8015610db75780601f10610d8c57610100808354040283529160200191610db7565b820191906000526020600020905b815481529060010190602001808311610d9a57829003601f168201915b505050505081565b60008060009054906101000a900473ffffffffffffffffffffffffffffffffffffffff16905090565b610df0611552565b73ffffffffffffffffffffffffffffffffffffffff16610e0e610dbf565b73ffffffffffffffffffffffffffffffffffffffff1614610e64576040517f08c379a0000000000000000000000000000000000000000000000000000000008152600401610e5b906126f8565b60405180910390fd5b600073ffffffffffffffffffffffffffffffffffffffff163373ffffffffffffffffffffffffffffffffffffffff161415610ed4576040517f08c379a0000000000000000000000000000000000000000000000000000000008152600401610ecb9061278a565b60405180910390fd5b60008a5111610f18576040517f08c379a0000000000000000000000000000000000000000000000000000000008152600401610f0f906127f6565b60405180910390fd5b6000895111610f5c576040517f08c379a0000000000000000000000000000000000000000000000000000000008152600401610f5390612862565b60405180910390fd5b6000885111610fa0576040517f08c379a0000000000000000000000000000000000000000000000000000000008152600401610f97906128ce565b60405180910390fd5b6000875111610fe4576040517f08c379a0000000000000000000000000000000000000000000000000000000008152600401610fdb9061293a565b60405180910390fd5b60008211611027576040517f08c379a000000000000000000000000000000000000000000000000000000000815260040161101e906129cc565b60405180910390fd5b600086511161106b576040517f08c379a000000000000000000000000000000000000000000000000000000000815260040161106290612a38565b60405180910390fd5b60008551116110af576040517f08c379a00000000000000000000000000000000000000000000000000000000081526004016110a690612aca565b60405180910390fd5b6110b9600561161e565b6110c36005611544565b600381905550600060066000600354815260200190815260200160002090508a8160010190805190602001906110fa929190611634565b5089816002019080519060200190611113929190611634565b508881600301908051906020019061112c929190611634565b5087816004019080519060200190611145929190611634565b508681600501908051906020019061115e929190611634565b5085816006019080519060200190611177929190611634565b5084816007019080519060200190611190929190611634565b508381600801819055508281600901819055508181600a0190805190602001906111bb929190611731565b506003548160000181905550600260009054906101000a900473ffffffffffffffffffffffffffffffffffffffff1681600b0160006101000a81548173ffffffffffffffffffffffffffffffffffffffff021916908373ffffffffffffffffffffffffffffffffffffffff160217905550600460035490806001815401808255809150506001900390600052602060002001600090919091909150557fc06f078c3c74d235829af3e011ff5aae487c78ef8d3acca688417ed86ff145918b8b8b8b8b8b8b8b8b8b600354600260009054906101000a900473ffffffffffffffffffffffffffffffffffffffff166040516112c09c9b9a99989796959493929190612aea565b60405180910390a15050505050505050505050565b600481815481106112e557600080fd5b906000526020600020016000915090505481565b611301611552565b73ffffffffffffffffffffffffffffffffffffffff1661131f610dbf565b73ffffffffffffffffffffffffffffffffffffffff1614611375576040517f08c379a000000000000000000000000000000000000000000000000000000000815260040161136c906126f8565b60405180910390fd5b600073ffffffffffffffffffffffffffffffffffffffff168173ffffffffffffffffffffffffffffffffffffffff1614156113e5576040517f08c379a00000000000000000000000000000000000000000000000000000000081526004016113dc90612c4e565b60405180910390fd5b6113ee8161155a565b50565b60006003548310611437576040517f08c379a000000000000000000000000000000000000000000000000000000000815260040161142e90612ce0565b60405180910390fd5b60005b82518110156115385760005b60066000868152602001908152602001600020600a01805490508110156115245783828151811061147a57611479612480565b5b60200260200101516040516020016114929190612d3c565b6040516020818303038152906040528051906020012060066000878152602001908152602001600020600a0182815481106114d0576114cf612480565b5b906000526020600020016040516020016114ea9190612dd2565b6040516020818303038152906040528051906020012014156115115760009250505061153e565b808061151c906124af565b915050611446565b508080611530906124af565b91505061143a565b50600190505b92915050565b600081600001549050919050565b600033905090565b60008060009054906101000a900473ffffffffffffffffffffffffffffffffffffffff169050816000806101000a81548173ffffffffffffffffffffffffffffffffffffffff021916908373ffffffffffffffffffffffffffffffffffffffff1602179055508173ffffffffffffffffffffffffffffffffffffffff168173ffffffffffffffffffffffffffffffffffffffff167f8be0079c531659141344cd1fd0a4f28419497f9722a3daafe3b4186f6b6457e060405160405180910390a35050565b6001816000016000828254019250508190555050565b82805461164090612527565b90600052602060002090601f01602090048101928261166257600085556116a9565b82601f1061167b57805160ff19168380011785556116a9565b828001600101855582156116a9579182015b828111156116a857825182559160200191906001019061168d565b5b5090506116b69190611791565b5090565b6040518061018001604052806000815260200160608152602001606081526020016060815260200160608152602001606081526020016060815260200160608152602001600081526020016000815260200160608152602001600073ffffffffffffffffffffffffffffffffffffffff1681525090565b828054828255906000526020600020908101928215611780579160200282015b8281111561177f57825182908051906020019061176f929190611634565b5091602001919060010190611751565b5b50905061178d91906117ae565b5090565b5b808211156117aa576000816000905550600101611792565b5090565b5b808211156117ce57600081816117c591906117d2565b506001016117af565b5090565b5080546117de90612527565b6000825580601f106117f0575061180f565b601f01602090049060005260206000209081019061180e9190611791565b5b50565b6000604051905090565b600080fd5b600080fd5b6000819050919050565b61183981611826565b811461184457600080fd5b50565b60008135905061185681611830565b92915050565b600080fd5b6000601f19601f8301169050919050565b7f4e487b7100000000000000000000000000000000000000000000000000000000600052604160045260246000fd5b6118aa82611861565b810181811067ffffffffffffffff821117156118c9576118c8611872565b5b80604052505050565b60006118dc611812565b90506118e882826118a1565b919050565b600067ffffffffffffffff82111561190857611907611872565b5b602082029050602081019050919050565b600080fd5b600080fd5b600067ffffffffffffffff82111561193e5761193d611872565b5b61194782611861565b9050602081019050919050565b82818337600083830152505050565b600061197661197184611923565b6118d2565b9050828152602081018484840111156119925761199161191e565b5b61199d848285611954565b509392505050565b600082601f8301126119ba576119b961185c565b5b81356119ca848260208601611963565b91505092915050565b60006119e66119e1846118ed565b6118d2565b90508083825260208201905060208402830185811115611a0957611a08611919565b5b835b81811015611a5057803567ffffffffffffffff811115611a2e57611a2d61185c565b5b808601611a3b89826119a5565b85526020850194505050602081019050611a0b565b5050509392505050565b600082601f830112611a6f57611a6e61185c565b5b8135611a7f8482602086016119d3565b91505092915050565b60008060408385031215611a9f57611a9e61181c565b5b6000611aad85828601611847565b925050602083013567ffffffffffffffff811115611ace57611acd611821565b5b611ada85828601611a5a565b9150509250929050565b600060208284031215611afa57611af961181c565b5b6000611b0884828501611847565b91505092915050565b600081519050919050565b600082825260208201905092915050565b60005b83811015611b4b578082015181840152602081019050611b30565b83811115611b5a576000848401525b50505050565b6000611b6b82611b11565b611b758185611b1c565b9350611b85818560208601611b2d565b611b8e81611861565b840191505092915050565b611ba281611826565b82525050565b600081519050919050565b600082825260208201905092915050565b6000819050602082019050919050565b600082825260208201905092915050565b6000611bf082611b11565b611bfa8185611bd4565b9350611c0a818560208601611b2d565b611c1381611861565b840191505092915050565b6000611c2a8383611be5565b905092915050565b6000602082019050919050565b6000611c4a82611ba8565b611c548185611bb3565b935083602082028501611c6685611bc4565b8060005b85811015611ca25784840389528151611c838582611c1e565b9450611c8e83611c32565b925060208a01995050600181019050611c6a565b50829750879550505050505092915050565b60006060820190508181036000830152611cce8186611b60565b9050611cdd6020830185611b99565b8181036040830152611cef8184611c3f565b9050949350505050565b600081519050919050565b600082825260208201905092915050565b6000819050602082019050919050565b611d2e81611826565b82525050565b600082825260208201905092915050565b6000611d5082611ba8565b611d5a8185611d34565b935083602082028501611d6c85611bc4565b8060005b85811015611da85784840389528151611d898582611c1e565b9450611d9483611c32565b925060208a01995050600181019050611d70565b50829750879550505050505092915050565b600073ffffffffffffffffffffffffffffffffffffffff82169050919050565b6000611de582611dba565b9050919050565b611df581611dda565b82525050565b600061018083016000830151611e146000860182611d25565b5060208301518482036020860152611e2c8282611be5565b91505060408301518482036040860152611e468282611be5565b91505060608301518482036060860152611e608282611be5565b91505060808301518482036080860152611e7a8282611be5565b91505060a083015184820360a0860152611e948282611be5565b91505060c083015184820360c0860152611eae8282611be5565b91505060e083015184820360e0860152611ec88282611be5565b915050610100830151611edf610100860182611d25565b50610120830151611ef4610120860182611d25565b50610140830151848203610140860152611f0e8282611d45565b915050610160830151611f25610160860182611dec565b508091505092915050565b6000611f3c8383611dfb565b905092915050565b6000602082019050919050565b6000611f5c82611cf9565b611f668185611d04565b935083602082028501611f7885611d15565b8060005b85811015611fb45784840389528151611f958582611f30565b9450611fa083611f44565b925060208a01995050600181019050611f7c565b50829750879550505050505092915050565b60006020820190508181036000830152611fe08184611f51565b905092915050565b600060208201905081810360008301526120028184611b60565b905092915050565b61201381611dda565b82525050565b600060208201905061202e600083018461200a565b92915050565b6000806000806000806000806000806101408b8d0312156120585761205761181c565b5b60008b013567ffffffffffffffff81111561207657612075611821565b5b6120828d828e016119a5565b9a505060208b013567ffffffffffffffff8111156120a3576120a2611821565b5b6120af8d828e016119a5565b99505060408b013567ffffffffffffffff8111156120d0576120cf611821565b5b6120dc8d828e016119a5565b98505060608b013567ffffffffffffffff8111156120fd576120fc611821565b5b6121098d828e016119a5565b97505060808b013567ffffffffffffffff81111561212a57612129611821565b5b6121368d828e016119a5565b96505060a08b013567ffffffffffffffff81111561215757612156611821565b5b6121638d828e016119a5565b95505060c08b013567ffffffffffffffff81111561218457612183611821565b5b6121908d828e016119a5565b94505060e06121a18d828e01611847565b9350506101006121b38d828e01611847565b9250506101208b013567ffffffffffffffff8111156121d5576121d4611821565b5b6121e18d828e01611a5a565b9150509295989b9194979a5092959850565b60006020820190506122086000830184611b99565b92915050565b61221781611dda565b811461222257600080fd5b50565b6000813590506122348161220e565b92915050565b6000602082840312156122505761224f61181c565b5b600061225e84828501612225565b91505092915050565b7f4e6f20737563682052656e74616c000000000000000000000000000000000000600082015250565b600061229d600e83611b1c565b91506122a882612267565b602082019050919050565b600060208201905081810360008301526122cc81612290565b9050919050565b7f416c726561647920426f6f6b656420466f72205265717565737465642044617460008201527f6500000000000000000000000000000000000000000000000000000000000000602082015250565b600061232f602183611b1c565b915061233a826122d3565b604082019050919050565b6000602082019050818103600083015261235e81612322565b9050919050565b7f4e487b7100000000000000000000000000000000000000000000000000000000600052601160045260246000fd5b600061239f82611826565b91506123aa83611826565b9250817fffffffffffffffffffffffffffffffffffffffffffffffffffffffffffffffff04831182151516156123e3576123e2612365565b5b828202905092915050565b7f506c65617365207375626d6974207468652061736b696e67207072696365206960008201527f6e206f7264657220746f20636f6d706c65746520746865207075726368617365602082015250565b600061244a604083611b1c565b9150612455826123ee565b604082019050919050565b600060208201905081810360008301526124798161243d565b9050919050565b7f4e487b7100000000000000000000000000000000000000000000000000000000600052603260045260246000fd5b60006124ba82611826565b91507fffffffffffffffffffffffffffffffffffffffffffffffffffffffffffffffff8214156124ed576124ec612365565b5b600182019050919050565b7f4e487b7100000000000000000000000000000000000000000000000000000000600052602260045260246000fd5b6000600282049050600182168061253f57607f821691505b60208210811415612553576125526124f8565b5b50919050565b60008190508160005260206000209050919050565b6000815461257b81612527565b6125858186611b1c565b945060018216600081146125a057600181146125b2576125e5565b60ff19831686526020860193506125e5565b6125bb85612559565b60005b838110156125dd578154818901526001820191506020810190506125be565b808801955050505b50505092915050565b600060a08201905081810360008301526126088188611c3f565b90506126176020830187611b99565b612624604083018661200a565b8181036060830152612636818561256e565b9050818103608083015261264a818461256e565b90509695505050505050565b600061266182611826565b915061266c83611826565b9250827fffffffffffffffffffffffffffffffffffffffffffffffffffffffffffffffff038211156126a1576126a0612365565b5b828201905092915050565b7f4f776e61626c653a2063616c6c6572206973206e6f7420746865206f776e6572600082015250565b60006126e2602083611b1c565b91506126ed826126ac565b602082019050919050565b60006020820190508181036000830152612711816126d5565b9050919050565b7f41646472657373206d7573742062652061206c65676974696d6174652061646460008201527f7265737300000000000000000000000000000000000000000000000000000000602082015250565b6000612774602483611b1c565b915061277f82612718565b604082019050919050565b600060208201905081810360008301526127a381612767565b9050919050565b7f4e616d652068617320746f2062652070617373656420696e0000000000000000600082015250565b60006127e0601883611b1c565b91506127eb826127aa565b602082019050919050565b6000602082019050818103600083015261280f816127d3565b9050919050565b7f436974792068617320746f206578697374000000000000000000000000000000600082015250565b600061284c601183611b1c565b915061285782612816565b602082019050919050565b6000602082019050818103600083015261287b8161283f565b9050919050565b7f6c617469747564652068617320746f2062652070617373656420696e00000000600082015250565b60006128b8601c83611b1c565b91506128c382612882565b602082019050919050565b600060208201905081810360008301526128e7816128ab565b9050919050565b7f6c6f6e6769747564652068617320746f20657869737400000000000000000000600082015250565b6000612924601683611b1c565b915061292f826128ee565b602082019050919050565b6000602082019050818103600083015261295381612917565b9050919050565b7f507269636520506572204461792068617320746f20626520706173736564206960008201527f6e00000000000000000000000000000000000000000000000000000000000000602082015250565b60006129b6602183611b1c565b91506129c18261295a565b604082019050919050565b600060208201905081810360008301526129e5816129a9565b9050919050565b7f756e6f4465736372697074696f6e2068617320746f2065786973740000000000600082015250565b6000612a22601b83611b1c565b9150612a2d826129ec565b602082019050919050565b60006020820190508181036000830152612a5181612a15565b9050919050565b7f646f4465736372697074696f6e2068617320746f20626520706173736564206960008201527f6e00000000000000000000000000000000000000000000000000000000000000602082015250565b6000612ab4602183611b1c565b9150612abf82612a58565b604082019050919050565b60006020820190508181036000830152612ae381612aa7565b9050919050565b6000610180820190508181036000830152612b05818f611b60565b90508181036020830152612b19818e611b60565b90508181036040830152612b2d818d611b60565b90508181036060830152612b41818c611b60565b90508181036080830152612b55818b611b60565b905081810360a0830152612b69818a611b60565b905081810360c0830152612b7d8189611b60565b9050612b8c60e0830188611b99565b612b9a610100830187611b99565b818103610120830152612bad8186611c3f565b9050612bbd610140830185611b99565b612bcb61016083018461200a565b9d9c50505050505050505050505050565b7f4f776e61626c653a206e6577206f776e657220697320746865207a65726f206160008201527f6464726573730000000000000000000000000000000000000000000000000000602082015250565b6000612c38602683611b1c565b9150612c4382612bdc565b604082019050919050565b60006020820190508181036000830152612c6781612c2b565b9050919050565b7f4964206d7573742062652076616c696420616e64206e6f74206772656174657260008201527f207468616e206d61782069640000000000000000000000000000000000000000602082015250565b6000612cca602c83611b1c565b9150612cd582612c6e565b604082019050919050565b60006020820190508181036000830152612cf981612cbd565b9050919050565b600081905092915050565b6000612d1682611b11565b612d208185612d00565b9350612d30818560208601611b2d565b80840191505092915050565b6000612d488284612d0b565b915081905092915050565b60008154612d6081612527565b612d6a8186612d00565b94506001821660008114612d855760018114612d9657612dc9565b60ff19831686528186019350612dc9565b612d9f85612559565b60005b83811015612dc157815481890152600182019150602081019050612da2565b838801955050505b50505092915050565b6000612dde8284612d53565b91508190509291505056fea26469706673582212203cbab13a1e8fecd5bcbece720289220463b193eebe447f9b3fa3bfeccff9c91264736f6c63430008080033",
  "immutableReferences": {},
  "source": "// SPDX-License-Identifier: MIT\r\npragma solidity ^0.8.7;\r\n\r\nimport \"@openzeppelin/contracts/utils/Counters.sol\";\r\nimport \"@openzeppelin/contracts/access/Ownable.sol\";\r\n\r\ncontract Airbnb is Ownable{\r\n    string public contractName;\r\n    address private _owner;\r\n    uint private rentalId;\r\n    uint256[] public rentalIds;\r\n\r\n    using Counters for Counters.Counter;\r\n    Counters.Counter private _rentalIds;\r\n\r\n    constructor(string memory _name){\r\n        contractName = _name;//\"Airbnb Clone Smart Contract\";\r\n        _owner = msg.sender;\r\n    }\r\n\r\n    struct RentalInfo {\r\n        uint256 id;\r\n        string name;\r\n        string city;\r\n        string lat;\r\n        string long;\r\n        string unoDescription;\r\n        string dosDescription;\r\n        string imgUrl;\r\n        uint256 maxGuests;\r\n        uint256 pricePerDay;\r\n        string[] datesBooked;\r\n        address renter;\r\n    }\r\n\r\n    event rentalCreated (\r\n        string name,\r\n        string city,\r\n        string lat,\r\n        string long,\r\n        string unoDescription,\r\n        string dosDescription,\r\n        string imgUrl,\r\n        uint256 maxGuests,\r\n        uint256 pricePerDay,\r\n        string[] datesBooked,\r\n        uint256 id,\r\n        address renter\r\n    );\r\n\r\n    event newDatesBooked (\r\n        string[] datesBooked,\r\n        uint256 id,\r\n        address booker,\r\n        string city,\r\n        string imgUrl \r\n    );\r\n\r\n    mapping(uint256=>RentalInfo) private rentals;\r\n\r\n    function addRentals(\r\n        string memory name,\r\n        string memory city,\r\n        string memory lat,\r\n        string memory long,\r\n        string memory unoDescription,\r\n        string memory dosDescription,\r\n        string memory imgUrl,\r\n        uint256 maxGuests,\r\n        uint256 pricePerDay,\r\n        string[] memory datesBooked\r\n    ) public onlyOwner {\r\n        require(msg.sender != address(0x0), \"Address must be a legitimate address\");\r\n        require(bytes(name).length > 0, \"Name has to be passed in\");\r\n        require(bytes(city).length > 0, \"City has to exist\");\r\n        require(bytes(lat).length > 0, \"latitude has to be passed in\");\r\n        require(bytes(long).length > 0, \"longitude has to exist\");\r\n        require(pricePerDay > 0, \"Price Per Day has to be passed in\");\r\n        require(bytes(unoDescription).length > 0, \"unoDescription has to exist\");\r\n        require(bytes(dosDescription).length > 0, \"doDescription has to be passed in\");\r\n\r\n        _rentalIds.increment();\r\n        rentalId = _rentalIds.current();\r\n        RentalInfo storage newRental = rentals[rentalId];\r\n        newRental.name = name;\r\n        newRental.city = city;\r\n        newRental.lat = lat;\r\n        newRental.long = long;\r\n        newRental.unoDescription = unoDescription;\r\n        newRental.dosDescription = dosDescription;\r\n        newRental.imgUrl = imgUrl;\r\n        newRental.maxGuests = maxGuests;\r\n        newRental.pricePerDay = pricePerDay;\r\n        newRental.datesBooked = datesBooked;\r\n        newRental.id = rentalId;\r\n        newRental.renter = _owner;\r\n        rentalIds.push(rentalId);\r\n        emit rentalCreated(\r\n                name, \r\n                city, \r\n                lat, \r\n                long, \r\n                unoDescription, \r\n                dosDescription, \r\n                imgUrl, \r\n                maxGuests, \r\n                pricePerDay, \r\n                datesBooked, \r\n                rentalId, \r\n                _owner);\r\n        \r\n        }\r\n    \r\n\r\n    function checkBookings(uint256 id, string[] memory newBookings) private view returns (bool){\r\n        require(id<rentalId,\"Id must be valid and not greater than max id\");\r\n\r\n        for (uint i = 0; i < newBookings.length; i++) {\r\n            for (uint j = 0; j < rentals[id].datesBooked.length; j++) {\r\n                if (keccak256(abi.encodePacked(rentals[id].datesBooked[j])) == keccak256(abi.encodePacked(newBookings[i]))) {\r\n                    return false;\r\n                }\r\n            }\r\n        }\r\n        return true;\r\n    }\r\n\r\n    function addDatesBooked(uint256 id, string[] memory newBookings) public payable {\r\n        require(id < rentalId, \"No such Rental\");\r\n        require(checkBookings(id, newBookings), \"Already Booked For Requested Date\");\r\n        require(msg.value == (rentals[id].pricePerDay * 1 ether * newBookings.length) , \"Please submit the asking price in order to complete the purchase\");\r\n    \r\n        for (uint i = 0; i < newBookings.length; i++) {\r\n            rentals[id].datesBooked.push(newBookings[i]);\r\n        }\r\n\r\n        payable(_owner).transfer(msg.value);//youcan store payment @contract address. and withdraw when you feel by adding a withdrawing function\r\n        emit newDatesBooked(newBookings, id, msg.sender, rentals[id].city,  rentals[id].imgUrl);\r\n    }\r\n\r\n    function getRental(uint256 id) public view returns (string memory, uint256, string[] memory){\r\n        require(id < rentalId, \"No such Rental\");\r\n\r\n        RentalInfo storage s = rentals[id];\r\n        return (s.name,s.pricePerDay,s.datesBooked);\r\n    }\r\n\r\n    function getAllRentals() public view returns (RentalInfo[] memory){\r\n        uint itemCount = _rentalIds.current();\r\n        uint currentIndex = 0;\r\n\r\n        RentalInfo[] memory allrentals = new RentalInfo[](itemCount);\r\n        for (uint i = 0; i < itemCount; i++) {\r\n            uint currentId = i + 1;//cant start with a zero cos counters started with 1\r\n            RentalInfo storage currentItem = rentals[currentId];//looks up the post by the uint id or indexed integer\r\n            allrentals[currentIndex] = currentItem;//puts in the post object by there index starting from zero into the list\r\n            currentIndex += 1;//increases the index by 1 after each loop\r\n        }\r\n        return allrentals;\r\n    }\r\n\r\n\r\n\r\n}",
  "sourcePath": "C:/Users/HP/Desktop/blockdev/smart_contracts/airbnb/contracts/Airbnb.sol",
  "compiler": {
    "name": "solc",
    "version": "0.8.8+commit.dddeac2f.Emscripten.clang"
  },
  "schemaVersion": "3.4.1",
  "updatedAt": "2022-04-20T12:39:36.575Z",
  "networkType": "ethereum",
  "devdoc": {
    "kind": "dev",
    "methods": {
      "owner()": {
        "details": "Returns the address of the current owner."
      },
      "renounceOwnership()": {
        "details": "Leaves the contract without owner. It will not be possible to call `onlyOwner` functions anymore. Can only be called by the current owner. NOTE: Renouncing ownership will leave the contract without an owner, thereby removing any functionality that is only available to the owner."
      },
      "transferOwnership(address)": {
        "details": "Transfers ownership of the contract to a new account (`newOwner`). Can only be called by the current owner."
      }
    },
    "version": 1
  },
  "userdoc": {
    "kind": "user",
    "methods": {},
    "version": 1
  }
}