{
  "contractName": "Airbnb",
  "abi": [
    {
      "inputs": [
        {
          "internalType": "string",
          "name": "_name",
          "type": "string"
        }
      ],
      "stateMutability": "nonpayable",
      "type": "constructor"
    },
    {
      "anonymous": false,
      "inputs": [
        {
          "indexed": true,
          "internalType": "address",
          "name": "previousOwner",
          "type": "address"
        },
        {
          "indexed": true,
          "internalType": "address",
          "name": "newOwner",
          "type": "address"
        }
      ],
      "name": "OwnershipTransferred",
      "type": "event"
    },
    {
      "anonymous": false,
      "inputs": [
        {
          "indexed": false,
          "internalType": "string[]",
          "name": "datesBooked",
          "type": "string[]"
        },
        {
          "indexed": false,
          "internalType": "uint256",
          "name": "id",
          "type": "uint256"
        },
        {
          "indexed": false,
          "internalType": "address",
          "name": "booker",
          "type": "address"
        },
        {
          "indexed": false,
          "internalType": "string",
          "name": "city",
          "type": "string"
        },
        {
          "indexed": false,
          "internalType": "string",
          "name": "imgUrl",
          "type": "string"
        }
      ],
      "name": "newDatesBooked",
      "type": "event"
    },
    {
      "anonymous": false,
      "inputs": [
        {
          "indexed": false,
          "internalType": "string",
          "name": "name",
          "type": "string"
        },
        {
          "indexed": false,
          "internalType": "string",
          "name": "city",
          "type": "string"
        },
        {
          "indexed": false,
          "internalType": "string",
          "name": "lat",
          "type": "string"
        },
        {
          "indexed": false,
          "internalType": "string",
          "name": "long",
          "type": "string"
        },
        {
          "indexed": false,
          "internalType": "string",
          "name": "unoDescription",
          "type": "string"
        },
        {
          "indexed": false,
          "internalType": "string",
          "name": "dosDescription",
          "type": "string"
        },
        {
          "indexed": false,
          "internalType": "string",
          "name": "imgUrl",
          "type": "string"
        },
        {
          "indexed": false,
          "internalType": "uint256",
          "name": "maxGuests",
          "type": "uint256"
        },
        {
          "indexed": false,
          "internalType": "uint256",
          "name": "pricePerDay",
          "type": "uint256"
        },
        {
          "indexed": false,
          "internalType": "string[]",
          "name": "datesBooked",
          "type": "string[]"
        },
        {
          "indexed": false,
          "internalType": "uint256",
          "name": "id",
          "type": "uint256"
        },
        {
          "indexed": false,
          "internalType": "address",
          "name": "renter",
          "type": "address"
        }
      ],
      "name": "rentalCreated",
      "type": "event"
    },
    {
      "inputs": [],
      "name": "contractName",
      "outputs": [
        {
          "internalType": "string",
          "name": "",
          "type": "string"
        }
      ],
      "stateMutability": "view",
      "type": "function"
    },
    {
      "inputs": [],
      "name": "owner",
      "outputs": [
        {
          "internalType": "address",
          "name": "",
          "type": "address"
        }
      ],
      "stateMutability": "view",
      "type": "function"
    },
    {
      "inputs": [],
      "name": "renounceOwnership",
      "outputs": [],
      "stateMutability": "nonpayable",
      "type": "function"
    },
    {
      "inputs": [
        {
          "internalType": "uint256",
          "name": "",
          "type": "uint256"
        }
      ],
      "name": "rentalIds",
      "outputs": [
        {
          "internalType": "uint256",
          "name": "",
          "type": "uint256"
        }
      ],
      "stateMutability": "view",
      "type": "function"
    },
    {
      "inputs": [
        {
          "internalType": "address",
          "name": "newOwner",
          "type": "address"
        }
      ],
      "name": "transferOwnership",
      "outputs": [],
      "stateMutability": "nonpayable",
      "type": "function"
    },
    {
      "inputs": [
        {
          "internalType": "string",
          "name": "name",
          "type": "string"
        },
        {
          "internalType": "string",
          "name": "city",
          "type": "string"
        },
        {
          "internalType": "string",
          "name": "lat",
          "type": "string"
        },
        {
          "internalType": "string",
          "name": "long",
          "type": "string"
        },
        {
          "internalType": "string",
          "name": "unoDescription",
          "type": "string"
        },
        {
          "internalType": "string",
          "name": "dosDescription",
          "type": "string"
        },
        {
          "internalType": "string",
          "name": "imgUrl",
          "type": "string"
        },
        {
          "internalType": "uint256",
          "name": "maxGuests",
          "type": "uint256"
        },
        {
          "internalType": "uint256",
          "name": "pricePerDay",
          "type": "uint256"
        },
        {
          "internalType": "string[]",
          "name": "datesBooked",
          "type": "string[]"
        }
      ],
      "name": "addRentals",
      "outputs": [],
      "stateMutability": "nonpayable",
      "type": "function"
    },
    {
      "inputs": [
        {
          "internalType": "uint256",
          "name": "id",
          "type": "uint256"
        },
        {
          "internalType": "string[]",
          "name": "newBookings",
          "type": "string[]"
        }
      ],
      "name": "addDatesBooked",
      "outputs": [],
      "stateMutability": "payable",
      "type": "function"
    },
    {
      "inputs": [],
      "name": "getRental",
      "outputs": [
        {
          "components": [
            {
              "internalType": "uint256",
              "name": "id",
              "type": "uint256"
            },
            {
              "internalType": "string",
              "name": "name",
              "type": "string"
            },
            {
              "internalType": "string",
              "name": "city",
              "type": "string"
            },
            {
              "internalType": "string",
              "name": "lat",
              "type": "string"
            },
            {
              "internalType": "string",
              "name": "long",
              "type": "string"
            },
            {
              "internalType": "string",
              "name": "unoDescription",
              "type": "string"
            },
            {
              "internalType": "string",
              "name": "dosDescription",
              "type": "string"
            },
            {
              "internalType": "string",
              "name": "imgUrl",
              "type": "string"
            },
            {
              "internalType": "uint256",
              "name": "maxGuests",
              "type": "uint256"
            },
            {
              "internalType": "uint256",
              "name": "pricePerDay",
              "type": "uint256"
            },
            {
              "internalType": "string[]",
              "name": "datesBooked",
              "type": "string[]"
            },
            {
              "internalType": "address",
              "name": "renter",
              "type": "address"
            }
          ],
          "internalType": "struct Airbnb.RentalInfo[]",
          "name": "",
          "type": "tuple[]"
        }
      ],
      "stateMutability": "view",
      "type": "function"
    },
    {
      "inputs": [
        {
          "internalType": "uint256",
          "name": "id",
          "type": "uint256"
        }
      ],
      "name": "getRental",
      "outputs": [
        {
          "internalType": "string",
          "name": "",
          "type": "string"
        },
        {
          "internalType": "uint256",
          "name": "",
          "type": "uint256"
        },
        {
          "internalType": "string[]",
          "name": "",
          "type": "string[]"
        }
      ],
      "stateMutability": "view",
      "type": "function"
    }
  ],
  "bytecode": "0x60806040523480156200001157600080fd5b50604051620032d3380380620032d38339818101604052810190620000379190620003e3565b6200006962000054620000ca640100000000026401000000009004565b620000d2640100000000026401000000009004565b80600190805190602001906200008192919062000196565b5033600260006101000a81548173ffffffffffffffffffffffffffffffffffffffff021916908373ffffffffffffffffffffffffffffffffffffffff1602179055505062000499565b600033905090565b60008060009054906101000a900473ffffffffffffffffffffffffffffffffffffffff169050816000806101000a81548173ffffffffffffffffffffffffffffffffffffffff021916908373ffffffffffffffffffffffffffffffffffffffff1602179055508173ffffffffffffffffffffffffffffffffffffffff168173ffffffffffffffffffffffffffffffffffffffff167f8be0079c531659141344cd1fd0a4f28419497f9722a3daafe3b4186f6b6457e060405160405180910390a35050565b828054620001a49062000463565b90600052602060002090601f016020900481019282620001c8576000855562000214565b82601f10620001e357805160ff191683800117855562000214565b8280016001018555821562000214579182015b8281111562000213578251825591602001919060010190620001f6565b5b50905062000223919062000227565b5090565b5b808211156200024257600081600090555060010162000228565b5090565b6000604051905090565b600080fd5b600080fd5b600080fd5b600080fd5b6000601f19601f8301169050919050565b7f4e487b7100000000000000000000000000000000000000000000000000000000600052604160045260246000fd5b620002af8262000264565b810181811067ffffffffffffffff82111715620002d157620002d062000275565b5b80604052505050565b6000620002e662000246565b9050620002f48282620002a4565b919050565b600067ffffffffffffffff82111562000317576200031662000275565b5b620003228262000264565b9050602081019050919050565b60005b838110156200034f57808201518184015260208101905062000332565b838111156200035f576000848401525b50505050565b60006200037c6200037684620002f9565b620002da565b9050828152602081018484840111156200039b576200039a6200025f565b5b620003a88482856200032f565b509392505050565b600082601f830112620003c857620003c76200025a565b5b8151620003da84826020860162000365565b91505092915050565b600060208284031215620003fc57620003fb62000250565b5b600082015167ffffffffffffffff8111156200041d576200041c62000255565b5b6200042b84828501620003b0565b91505092915050565b7f4e487b7100000000000000000000000000000000000000000000000000000000600052602260045260246000fd5b600060028204905060018216806200047c57607f821691505b6020821081141562000493576200049262000434565b5b50919050565b612e2a80620004a96000396000f3fe6080604052600436106100a3576000357c01000000000000000000000000000000000000000000000000000000009004806375d0c0dc1161007657806375d0c0dc146101455780638da5cb5b14610170578063deb38e791461019b578063ebfa74c9146101c4578063f2fde38b14610201576100a3565b80632a23bb72146100a85780634013fd04146100c4578063652bd29e146100ef578063715018a61461012e575b600080fd5b6100c260048036038101906100bd9190611a93565b61022a565b005b3480156100d057600080fd5b506100d961048e565b6040516100e69190611e80565b60405180910390f35b3480156100fb57600080fd5b5061011660048036038101906101119190611ea2565b610ace565b60405161012593929190611fae565b60405180910390f35b34801561013a57600080fd5b50610143610ca9565b005b34801561015157600080fd5b5061015a610d31565b6040516101679190611ff3565b60405180910390f35b34801561017c57600080fd5b50610185610dbf565b6040516101929190612024565b60405180910390f35b3480156101a757600080fd5b506101c260048036038101906101bd919061203f565b610de8565b005b3480156101d057600080fd5b506101eb60048036038101906101e69190611ea2565b6112d5565b6040516101f891906121fe565b60405180910390f35b34801561020d57600080fd5b5061022860048036038101906102239190612245565b6112f9565b005b600354821061026e576040517f08c379a0000000000000000000000000000000000000000000000000000000008152600401610265906122be565b60405180910390fd5b61027882826113f1565b6102b7576040517f08c379a00000000000000000000000000000000000000000000000000000000081526004016102ae90612350565b60405180910390fd5b8051670de0b6b3a764000060066000858152602001908152602001600020600901546102e3919061239f565b6102ed919061239f565b341461032e576040517f08c379a00000000000000000000000000000000000000000000000000000000081526004016103259061246b565b60405180910390fd5b60005b81518110156103b75760066000848152602001908152602001600020600a018282815181106103635761036261248b565b5b60200260200101519080600181540180825580915050600190039060005260206000200160009091909190915090805190602001906103a392919061163f565b5080806103af906124ba565b915050610331565b50600260009054906101000a900473ffffffffffffffffffffffffffffffffffffffff1673ffffffffffffffffffffffffffffffffffffffff166108fc349081150290604051600060405180830381858888f19350505050158015610420573d6000803e3d6000fd5b507fdfcc683ac35013d595a2db07bcb6601a1bbc6c91dad13117fd60299c875c61b481833360066000878152602001908152602001600020600201600660008881526020019081526020016000206007016040516104829594939291906125f9565b60405180910390a15050565b6060600061049c600561154f565b90506000808267ffffffffffffffff8111156104bb576104ba61187d565b5b6040519080825280602002602001820160405280156104f457816020015b6104e16116c5565b8152602001906001900390816104d95790505b50905060005b83811015610ac45760006001826105119190612661565b9050600060066000838152602001908152602001600020905080604051806101800160405290816000820154815260200160018201805461055190612532565b80601f016020809104026020016040519081016040528092919081815260200182805461057d90612532565b80156105ca5780601f1061059f576101008083540402835291602001916105ca565b820191906000526020600020905b8154815290600101906020018083116105ad57829003601f168201915b505050505081526020016002820180546105e390612532565b80601f016020809104026020016040519081016040528092919081815260200182805461060f90612532565b801561065c5780601f106106315761010080835404028352916020019161065c565b820191906000526020600020905b81548152906001019060200180831161063f57829003601f168201915b5050505050815260200160038201805461067590612532565b80601f01602080910402602001604051908101604052809291908181526020018280546106a190612532565b80156106ee5780601f106106c3576101008083540402835291602001916106ee565b820191906000526020600020905b8154815290600101906020018083116106d157829003601f168201915b5050505050815260200160048201805461070790612532565b80601f016020809104026020016040519081016040528092919081815260200182805461073390612532565b80156107805780601f1061075557610100808354040283529160200191610780565b820191906000526020600020905b81548152906001019060200180831161076357829003601f168201915b5050505050815260200160058201805461079990612532565b80601f01602080910402602001604051908101604052809291908181526020018280546107c590612532565b80156108125780601f106107e757610100808354040283529160200191610812565b820191906000526020600020905b8154815290600101906020018083116107f557829003601f168201915b5050505050815260200160068201805461082b90612532565b80601f016020809104026020016040519081016040528092919081815260200182805461085790612532565b80156108a45780601f10610879576101008083540402835291602001916108a4565b820191906000526020600020905b81548152906001019060200180831161088757829003601f168201915b505050505081526020016007820180546108bd90612532565b80601f01602080910402602001604051908101604052809291908181526020018280546108e990612532565b80156109365780601f1061090b57610100808354040283529160200191610936565b820191906000526020600020905b81548152906001019060200180831161091957829003601f168201915b505050505081526020016008820154815260200160098201548152602001600a8201805480602002602001604051908101604052809291908181526020016000905b82821015610a2457838290600052602060002001805461099790612532565b80601f01602080910402602001604051908101604052809291908181526020018280546109c390612532565b8015610a105780601f106109e557610100808354040283529160200191610a10565b820191906000526020600020905b8154815290600101906020018083116109f357829003601f168201915b505050505081526020019060010190610978565b505050508152602001600b820160009054906101000a900473ffffffffffffffffffffffffffffffffffffffff1673ffffffffffffffffffffffffffffffffffffffff1673ffffffffffffffffffffffffffffffffffffffff1681525050848681518110610a9557610a9461248b565b5b6020026020010181905250600185610aad9190612661565b945050508080610abc906124ba565b9150506104fa565b5080935050505090565b6060600060606003548410610b18576040517f08c379a0000000000000000000000000000000000000000000000000000000008152600401610b0f906122be565b60405180910390fd5b600060066000868152602001908152602001600020905080600101816009015482600a01828054610b4890612532565b80601f0160208091040260200160405190810160405280929190818152602001828054610b7490612532565b8015610bc15780601f10610b9657610100808354040283529160200191610bc1565b820191906000526020600020905b815481529060010190602001808311610ba457829003601f168201915b5050505050925080805480602002602001604051908101604052809291908181526020016000905b82821015610c95578382906000526020600020018054610c0890612532565b80601f0160208091040260200160405190810160405280929190818152602001828054610c3490612532565b8015610c815780601f10610c5657610100808354040283529160200191610c81565b820191906000526020600020905b815481529060010190602001808311610c6457829003601f168201915b505050505081526020019060010190610be9565b505050509050935093509350509193909250565b610cb161155d565b73ffffffffffffffffffffffffffffffffffffffff16610ccf610dbf565b73ffffffffffffffffffffffffffffffffffffffff1614610d25576040517f08c379a0000000000000000000000000000000000000000000000000000000008152600401610d1c90612703565b60405180910390fd5b610d2f6000611565565b565b60018054610d3e90612532565b80601f0160208091040260200160405190810160405280929190818152602001828054610d6a90612532565b8015610db75780601f10610d8c57610100808354040283529160200191610db7565b820191906000526020600020905b815481529060010190602001808311610d9a57829003601f168201915b505050505081565b60008060009054906101000a900473ffffffffffffffffffffffffffffffffffffffff16905090565b610df061155d565b73ffffffffffffffffffffffffffffffffffffffff16610e0e610dbf565b73ffffffffffffffffffffffffffffffffffffffff1614610e64576040517f08c379a0000000000000000000000000000000000000000000000000000000008152600401610e5b90612703565b60405180910390fd5b600073ffffffffffffffffffffffffffffffffffffffff163373ffffffffffffffffffffffffffffffffffffffff161415610ed4576040517f08c379a0000000000000000000000000000000000000000000000000000000008152600401610ecb90612795565b60405180910390fd5b60008a5111610f18576040517f08c379a0000000000000000000000000000000000000000000000000000000008152600401610f0f90612801565b60405180910390fd5b6000895111610f5c576040517f08c379a0000000000000000000000000000000000000000000000000000000008152600401610f539061286d565b60405180910390fd5b6000885111610fa0576040517f08c379a0000000000000000000000000000000000000000000000000000000008152600401610f97906128d9565b60405180910390fd5b6000875111610fe4576040517f08c379a0000000000000000000000000000000000000000000000000000000008152600401610fdb90612945565b60405180910390fd5b60008211611027576040517f08c379a000000000000000000000000000000000000000000000000000000000815260040161101e906129d7565b60405180910390fd5b600086511161106b576040517f08c379a000000000000000000000000000000000000000000000000000000000815260040161106290612a43565b60405180910390fd5b60008551116110af576040517f08c379a00000000000000000000000000000000000000000000000000000000081526004016110a690612ad5565b60405180910390fd5b6110b96005611629565b6110c3600561154f565b600381905550600060066000600354815260200190815260200160002090508a8160010190805190602001906110fa92919061163f565b508981600201908051906020019061111392919061163f565b508881600301908051906020019061112c92919061163f565b508781600401908051906020019061114592919061163f565b508681600501908051906020019061115e92919061163f565b508581600601908051906020019061117792919061163f565b508481600701908051906020019061119092919061163f565b508381600801819055508281600901819055508181600a0190805190602001906111bb92919061173c565b506003548160000181905550600260009054906101000a900473ffffffffffffffffffffffffffffffffffffffff1681600b0160006101000a81548173ffffffffffffffffffffffffffffffffffffffff021916908373ffffffffffffffffffffffffffffffffffffffff160217905550600460035490806001815401808255809150506001900390600052602060002001600090919091909150557fc06f078c3c74d235829af3e011ff5aae487c78ef8d3acca688417ed86ff145918b8b8b8b8b8b8b8b8b8b600354600260009054906101000a900473ffffffffffffffffffffffffffffffffffffffff166040516112c09c9b9a99989796959493929190612af5565b60405180910390a15050505050505050505050565b600481815481106112e557600080fd5b906000526020600020016000915090505481565b61130161155d565b73ffffffffffffffffffffffffffffffffffffffff1661131f610dbf565b73ffffffffffffffffffffffffffffffffffffffff1614611375576040517f08c379a000000000000000000000000000000000000000000000000000000000815260040161136c90612703565b60405180910390fd5b600073ffffffffffffffffffffffffffffffffffffffff168173ffffffffffffffffffffffffffffffffffffffff1614156113e5576040517f08c379a00000000000000000000000000000000000000000000000000000000081526004016113dc90612c59565b60405180910390fd5b6113ee81611565565b50565b60008083118015611403575060035483105b611442576040517f08c379a000000000000000000000000000000000000000000000000000000000815260040161143990612ceb565b60405180910390fd5b60005b82518110156115435760005b60066000868152602001908152602001600020600a018054905081101561152f578382815181106114855761148461248b565b5b602002602001015160405160200161149d9190612d47565b6040516020818303038152906040528051906020012060066000878152602001908152602001600020600a0182815481106114db576114da61248b565b5b906000526020600020016040516020016114f59190612ddd565b60405160208183030381529060405280519060200120141561151c57600092505050611549565b8080611527906124ba565b915050611451565b50808061153b906124ba565b915050611445565b50600190505b92915050565b600081600001549050919050565b600033905090565b60008060009054906101000a900473ffffffffffffffffffffffffffffffffffffffff169050816000806101000a81548173ffffffffffffffffffffffffffffffffffffffff021916908373ffffffffffffffffffffffffffffffffffffffff1602179055508173ffffffffffffffffffffffffffffffffffffffff168173ffffffffffffffffffffffffffffffffffffffff167f8be0079c531659141344cd1fd0a4f28419497f9722a3daafe3b4186f6b6457e060405160405180910390a35050565b6001816000016000828254019250508190555050565b82805461164b90612532565b90600052602060002090601f01602090048101928261166d57600085556116b4565b82601f1061168657805160ff19168380011785556116b4565b828001600101855582156116b4579182015b828111156116b3578251825591602001919060010190611698565b5b5090506116c1919061179c565b5090565b6040518061018001604052806000815260200160608152602001606081526020016060815260200160608152602001606081526020016060815260200160608152602001600081526020016000815260200160608152602001600073ffffffffffffffffffffffffffffffffffffffff1681525090565b82805482825590600052602060002090810192821561178b579160200282015b8281111561178a57825182908051906020019061177a92919061163f565b509160200191906001019061175c565b5b50905061179891906117b9565b5090565b5b808211156117b557600081600090555060010161179d565b5090565b5b808211156117d957600081816117d091906117dd565b506001016117ba565b5090565b5080546117e990612532565b6000825580601f106117fb575061181a565b601f016020900490600052602060002090810190611819919061179c565b5b50565b6000604051905090565b600080fd5b600080fd5b6000819050919050565b61184481611831565b811461184f57600080fd5b50565b6000813590506118618161183b565b92915050565b600080fd5b6000601f19601f8301169050919050565b7f4e487b7100000000000000000000000000000000000000000000000000000000600052604160045260246000fd5b6118b58261186c565b810181811067ffffffffffffffff821117156118d4576118d361187d565b5b80604052505050565b60006118e761181d565b90506118f382826118ac565b919050565b600067ffffffffffffffff8211156119135761191261187d565b5b602082029050602081019050919050565b600080fd5b600080fd5b600067ffffffffffffffff8211156119495761194861187d565b5b6119528261186c565b9050602081019050919050565b82818337600083830152505050565b600061198161197c8461192e565b6118dd565b90508281526020810184848401111561199d5761199c611929565b5b6119a884828561195f565b509392505050565b600082601f8301126119c5576119c4611867565b5b81356119d584826020860161196e565b91505092915050565b60006119f16119ec846118f8565b6118dd565b90508083825260208201905060208402830185811115611a1457611a13611924565b5b835b81811015611a5b57803567ffffffffffffffff811115611a3957611a38611867565b5b808601611a4689826119b0565b85526020850194505050602081019050611a16565b5050509392505050565b600082601f830112611a7a57611a79611867565b5b8135611a8a8482602086016119de565b91505092915050565b60008060408385031215611aaa57611aa9611827565b5b6000611ab885828601611852565b925050602083013567ffffffffffffffff811115611ad957611ad861182c565b5b611ae585828601611a65565b9150509250929050565b600081519050919050565b600082825260208201905092915050565b6000819050602082019050919050565b611b2481611831565b82525050565b600081519050919050565b600082825260208201905092915050565b60005b83811015611b64578082015181840152602081019050611b49565b83811115611b73576000848401525b50505050565b6000611b8482611b2a565b611b8e8185611b35565b9350611b9e818560208601611b46565b611ba78161186c565b840191505092915050565b600081519050919050565b600082825260208201905092915050565b6000819050602082019050919050565b6000611bea8383611b79565b905092915050565b6000602082019050919050565b6000611c0a82611bb2565b611c148185611bbd565b935083602082028501611c2685611bce565b8060005b85811015611c625784840389528151611c438582611bde565b9450611c4e83611bf2565b925060208a01995050600181019050611c2a565b50829750879550505050505092915050565b600073ffffffffffffffffffffffffffffffffffffffff82169050919050565b6000611c9f82611c74565b9050919050565b611caf81611c94565b82525050565b600061018083016000830151611cce6000860182611b1b565b5060208301518482036020860152611ce68282611b79565b91505060408301518482036040860152611d008282611b79565b91505060608301518482036060860152611d1a8282611b79565b91505060808301518482036080860152611d348282611b79565b91505060a083015184820360a0860152611d4e8282611b79565b91505060c083015184820360c0860152611d688282611b79565b91505060e083015184820360e0860152611d828282611b79565b915050610100830151611d99610100860182611b1b565b50610120830151611dae610120860182611b1b565b50610140830151848203610140860152611dc88282611bff565b915050610160830151611ddf610160860182611ca6565b508091505092915050565b6000611df68383611cb5565b905092915050565b6000602082019050919050565b6000611e1682611aef565b611e208185611afa565b935083602082028501611e3285611b0b565b8060005b85811015611e6e5784840389528151611e4f8582611dea565b9450611e5a83611dfe565b925060208a01995050600181019050611e36565b50829750879550505050505092915050565b60006020820190508181036000830152611e9a8184611e0b565b905092915050565b600060208284031215611eb857611eb7611827565b5b6000611ec684828501611852565b91505092915050565b600082825260208201905092915050565b6000611eeb82611b2a565b611ef58185611ecf565b9350611f05818560208601611b46565b611f0e8161186c565b840191505092915050565b611f2281611831565b82525050565b600082825260208201905092915050565b6000611f4482611bb2565b611f4e8185611f28565b935083602082028501611f6085611bce565b8060005b85811015611f9c5784840389528151611f7d8582611bde565b9450611f8883611bf2565b925060208a01995050600181019050611f64565b50829750879550505050505092915050565b60006060820190508181036000830152611fc88186611ee0565b9050611fd76020830185611f19565b8181036040830152611fe98184611f39565b9050949350505050565b6000602082019050818103600083015261200d8184611ee0565b905092915050565b61201e81611c94565b82525050565b60006020820190506120396000830184612015565b92915050565b6000806000806000806000806000806101408b8d03121561206357612062611827565b5b60008b013567ffffffffffffffff8111156120815761208061182c565b5b61208d8d828e016119b0565b9a505060208b013567ffffffffffffffff8111156120ae576120ad61182c565b5b6120ba8d828e016119b0565b99505060408b013567ffffffffffffffff8111156120db576120da61182c565b5b6120e78d828e016119b0565b98505060608b013567ffffffffffffffff8111156121085761210761182c565b5b6121148d828e016119b0565b97505060808b013567ffffffffffffffff8111156121355761213461182c565b5b6121418d828e016119b0565b96505060a08b013567ffffffffffffffff8111156121625761216161182c565b5b61216e8d828e016119b0565b95505060c08b013567ffffffffffffffff81111561218f5761218e61182c565b5b61219b8d828e016119b0565b94505060e06121ac8d828e01611852565b9350506101006121be8d828e01611852565b9250506101208b013567ffffffffffffffff8111156121e0576121df61182c565b5b6121ec8d828e01611a65565b9150509295989b9194979a5092959850565b60006020820190506122136000830184611f19565b92915050565b61222281611c94565b811461222d57600080fd5b50565b60008135905061223f81612219565b92915050565b60006020828403121561225b5761225a611827565b5b600061226984828501612230565b91505092915050565b7f4e6f20737563682052656e74616c000000000000000000000000000000000000600082015250565b60006122a8600e83611ecf565b91506122b382612272565b602082019050919050565b600060208201905081810360008301526122d78161229b565b9050919050565b7f416c726561647920426f6f6b656420466f72205265717565737465642044617460008201527f6500000000000000000000000000000000000000000000000000000000000000602082015250565b600061233a602183611ecf565b9150612345826122de565b604082019050919050565b600060208201905081810360008301526123698161232d565b9050919050565b7f4e487b7100000000000000000000000000000000000000000000000000000000600052601160045260246000fd5b60006123aa82611831565b91506123b583611831565b9250817fffffffffffffffffffffffffffffffffffffffffffffffffffffffffffffffff04831182151516156123ee576123ed612370565b5b828202905092915050565b7f506c65617365207375626d6974207468652061736b696e67207072696365206960008201527f6e206f7264657220746f20636f6d706c65746520746865207075726368617365602082015250565b6000612455604083611ecf565b9150612460826123f9565b604082019050919050565b6000602082019050818103600083015261248481612448565b9050919050565b7f4e487b7100000000000000000000000000000000000000000000000000000000600052603260045260246000fd5b60006124c582611831565b91507fffffffffffffffffffffffffffffffffffffffffffffffffffffffffffffffff8214156124f8576124f7612370565b5b600182019050919050565b7f4e487b7100000000000000000000000000000000000000000000000000000000600052602260045260246000fd5b6000600282049050600182168061254a57607f821691505b6020821081141561255e5761255d612503565b5b50919050565b60008190508160005260206000209050919050565b6000815461258681612532565b6125908186611ecf565b945060018216600081146125ab57600181146125bd576125f0565b60ff19831686526020860193506125f0565b6125c685612564565b60005b838110156125e8578154818901526001820191506020810190506125c9565b808801955050505b50505092915050565b600060a08201905081810360008301526126138188611f39565b90506126226020830187611f19565b61262f6040830186612015565b81810360608301526126418185612579565b905081810360808301526126558184612579565b90509695505050505050565b600061266c82611831565b915061267783611831565b9250827fffffffffffffffffffffffffffffffffffffffffffffffffffffffffffffffff038211156126ac576126ab612370565b5b828201905092915050565b7f4f776e61626c653a2063616c6c6572206973206e6f7420746865206f776e6572600082015250565b60006126ed602083611ecf565b91506126f8826126b7565b602082019050919050565b6000602082019050818103600083015261271c816126e0565b9050919050565b7f41646472657373206d7573742062652061206c65676974696d6174652061646460008201527f7265737300000000000000000000000000000000000000000000000000000000602082015250565b600061277f602483611ecf565b915061278a82612723565b604082019050919050565b600060208201905081810360008301526127ae81612772565b9050919050565b7f4e616d652068617320746f2062652070617373656420696e0000000000000000600082015250565b60006127eb601883611ecf565b91506127f6826127b5565b602082019050919050565b6000602082019050818103600083015261281a816127de565b9050919050565b7f436974792068617320746f206578697374000000000000000000000000000000600082015250565b6000612857601183611ecf565b915061286282612821565b602082019050919050565b600060208201905081810360008301526128868161284a565b9050919050565b7f6c617469747564652068617320746f2062652070617373656420696e00000000600082015250565b60006128c3601c83611ecf565b91506128ce8261288d565b602082019050919050565b600060208201905081810360008301526128f2816128b6565b9050919050565b7f6c6f6e6769747564652068617320746f20657869737400000000000000000000600082015250565b600061292f601683611ecf565b915061293a826128f9565b602082019050919050565b6000602082019050818103600083015261295e81612922565b9050919050565b7f507269636520506572204461792068617320746f20626520706173736564206960008201527f6e00000000000000000000000000000000000000000000000000000000000000602082015250565b60006129c1602183611ecf565b91506129cc82612965565b604082019050919050565b600060208201905081810360008301526129f0816129b4565b9050919050565b7f756e6f4465736372697074696f6e2068617320746f2065786973740000000000600082015250565b6000612a2d601b83611ecf565b9150612a38826129f7565b602082019050919050565b60006020820190508181036000830152612a5c81612a20565b9050919050565b7f646f4465736372697074696f6e2068617320746f20626520706173736564206960008201527f6e00000000000000000000000000000000000000000000000000000000000000602082015250565b6000612abf602183611ecf565b9150612aca82612a63565b604082019050919050565b60006020820190508181036000830152612aee81612ab2565b9050919050565b6000610180820190508181036000830152612b10818f611ee0565b90508181036020830152612b24818e611ee0565b90508181036040830152612b38818d611ee0565b90508181036060830152612b4c818c611ee0565b90508181036080830152612b60818b611ee0565b905081810360a0830152612b74818a611ee0565b905081810360c0830152612b888189611ee0565b9050612b9760e0830188611f19565b612ba5610100830187611f19565b818103610120830152612bb88186611f39565b9050612bc8610140830185611f19565b612bd6610160830184612015565b9d9c50505050505050505050505050565b7f4f776e61626c653a206e6577206f776e657220697320746865207a65726f206160008201527f6464726573730000000000000000000000000000000000000000000000000000602082015250565b6000612c43602683611ecf565b9150612c4e82612be7565b604082019050919050565b60006020820190508181036000830152612c7281612c36565b9050919050565b7f4964206d7573742062652076616c696420616e64206e6f74206772656174657260008201527f207468616e206d61782069640000000000000000000000000000000000000000602082015250565b6000612cd5602c83611ecf565b9150612ce082612c79565b604082019050919050565b60006020820190508181036000830152612d0481612cc8565b9050919050565b600081905092915050565b6000612d2182611b2a565b612d2b8185612d0b565b9350612d3b818560208601611b46565b80840191505092915050565b6000612d538284612d16565b915081905092915050565b60008154612d6b81612532565b612d758186612d0b565b94506001821660008114612d905760018114612da157612dd4565b60ff19831686528186019350612dd4565b612daa85612564565b60005b83811015612dcc57815481890152600182019150602081019050612dad565b838801955050505b50505092915050565b6000612de98284612d5e565b91508190509291505056fea2646970667358221220c69ff5300889fbdd9c9a0454e2c7c810d68ccccb4604bc53625d6fefbc094a3164736f6c63430008080033",
  "immutableReferences": {},
  "source": "// SPDX-License-Identifier: MIT\r\npragma solidity ^0.8.7;\r\n\r\nimport \"@openzeppelin/contracts/utils/Counters.sol\";\r\nimport \"@openzeppelin/contracts/access/Ownable.sol\";\r\n\r\ncontract Airbnb is Ownable{\r\n    string public contractName;\r\n    address private _owner;\r\n    uint private rentalId;\r\n    uint256[] public rentalIds;\r\n\r\n    using Counters for Counters.Counter;\r\n    Counters.Counter private _rentalIds;\r\n\r\n    constructor(string memory _name){\r\n        contractName = _name;//\"Airbnb Clone Smart Contract\";\r\n        _owner = msg.sender;\r\n    }\r\n\r\n    struct RentalInfo {\r\n        uint256 id;\r\n        string name;\r\n        string city;\r\n        string lat;\r\n        string long;\r\n        string unoDescription;\r\n        string dosDescription;\r\n        string imgUrl;\r\n        uint256 maxGuests;\r\n        uint256 pricePerDay;\r\n        string[] datesBooked;\r\n        address renter;\r\n    }\r\n\r\n    event rentalCreated (\r\n        string name,\r\n        string city,\r\n        string lat,\r\n        string long,\r\n        string unoDescription,\r\n        string dosDescription,\r\n        string imgUrl,\r\n        uint256 maxGuests,\r\n        uint256 pricePerDay,\r\n        string[] datesBooked,\r\n        uint256 id,\r\n        address renter\r\n    );\r\n\r\n    event newDatesBooked (\r\n        string[] datesBooked,\r\n        uint256 id,\r\n        address booker,\r\n        string city,\r\n        string imgUrl \r\n    );\r\n\r\n    mapping(uint256=>RentalInfo) private rentals;\r\n\r\n    function addRentals(\r\n        string memory name,\r\n        string memory city,\r\n        string memory lat,\r\n        string memory long,\r\n        string memory unoDescription,\r\n        string memory dosDescription,\r\n        string memory imgUrl,\r\n        uint256 maxGuests,\r\n        uint256 pricePerDay,\r\n        string[] memory datesBooked\r\n    ) public onlyOwner {\r\n        require(msg.sender != address(0x0), \"Address must be a legitimate address\");\r\n        require(bytes(name).length > 0, \"Name has to be passed in\");\r\n        require(bytes(city).length > 0, \"City has to exist\");\r\n        require(bytes(lat).length > 0, \"latitude has to be passed in\");\r\n        require(bytes(long).length > 0, \"longitude has to exist\");\r\n        require(pricePerDay > 0, \"Price Per Day has to be passed in\");\r\n        require(bytes(unoDescription).length > 0, \"unoDescription has to exist\");\r\n        require(bytes(dosDescription).length > 0, \"doDescription has to be passed in\");\r\n\r\n        _rentalIds.increment();\r\n        rentalId = _rentalIds.current();\r\n        RentalInfo storage newRental = rentals[rentalId];\r\n        newRental.name = name;\r\n        newRental.city = city;\r\n        newRental.lat = lat;\r\n        newRental.long = long;\r\n        newRental.unoDescription = unoDescription;\r\n        newRental.dosDescription = dosDescription;\r\n        newRental.imgUrl = imgUrl;\r\n        newRental.maxGuests = maxGuests;\r\n        newRental.pricePerDay = pricePerDay;\r\n        newRental.datesBooked = datesBooked;\r\n        newRental.id = rentalId;\r\n        newRental.renter = _owner;\r\n        rentalIds.push(rentalId);\r\n        emit rentalCreated(\r\n                name, \r\n                city, \r\n                lat, \r\n                long, \r\n                unoDescription, \r\n                dosDescription, \r\n                imgUrl, \r\n                maxGuests, \r\n                pricePerDay, \r\n                datesBooked, \r\n                rentalId, \r\n                _owner);\r\n        \r\n        }\r\n    \r\n\r\n    function checkBookings(uint256 id, string[] memory newBookings) private view returns (bool){\r\n        require(id>0 && id<rentalId,\"Id must be valid and not greater than max id\");\r\n\r\n        for (uint i = 0; i < newBookings.length; i++) {\r\n            for (uint j = 0; j < rentals[id].datesBooked.length; j++) {\r\n                if (keccak256(abi.encodePacked(rentals[id].datesBooked[j])) == keccak256(abi.encodePacked(newBookings[i]))) {\r\n                    return false;\r\n                }\r\n            }\r\n        }\r\n        return true;\r\n    }\r\n\r\n    function addDatesBooked(uint256 id, string[] memory newBookings) public payable {\r\n        require(id < rentalId, \"No such Rental\");\r\n        require(checkBookings(id, newBookings), \"Already Booked For Requested Date\");\r\n        require(msg.value == (rentals[id].pricePerDay * 1 ether * newBookings.length) , \"Please submit the asking price in order to complete the purchase\");\r\n    \r\n        for (uint i = 0; i < newBookings.length; i++) {\r\n            rentals[id].datesBooked.push(newBookings[i]);\r\n        }\r\n\r\n        payable(_owner).transfer(msg.value);//youcan store payment @contract address. and withdraw when you feel by adding a withdrawing function\r\n        emit newDatesBooked(newBookings, id, msg.sender, rentals[id].city,  rentals[id].imgUrl);\r\n    }\r\n\r\n    function getRental(uint256 id) public view returns (string memory, uint256, string[] memory){\r\n        require(id < rentalId, \"No such Rental\");\r\n\r\n        RentalInfo storage s = rentals[id];\r\n        return (s.name,s.pricePerDay,s.datesBooked);\r\n    }\r\n\r\n    function getRental() public view returns (RentalInfo[] memory){\r\n        uint itemCount = _rentalIds.current();\r\n        uint currentIndex = 0;\r\n\r\n        RentalInfo[] memory allrentals = new RentalInfo[](itemCount);\r\n        for (uint i = 0; i < itemCount; i++) {\r\n            uint currentId = i + 1;//cant start with a zero cos counters started with 1\r\n            RentalInfo storage currentItem = rentals[currentId];//looks up the post by the uint id or indexed integer\r\n            allrentals[currentIndex] = currentItem;//puts in the post object by there index starting from zero into the list\r\n            currentIndex += 1;//increases the index by 1 after each loop\r\n        }\r\n        return allrentals;\r\n    }\r\n\r\n\r\n\r\n}",
  "sourcePath": "C:/Users/HP/Desktop/blockdev/smart_contracts/airbnb/contracts/Airbnb.sol",
  "compiler": {
    "name": "solc",
    "version": "0.8.8+commit.dddeac2f.Emscripten.clang"
  },
  "schemaVersion": "3.4.1",
  "updatedAt": "2022-04-17T09:30:53.072Z",
  "devdoc": {
    "kind": "dev",
    "methods": {
      "owner()": {
        "details": "Returns the address of the current owner."
      },
      "renounceOwnership()": {
        "details": "Leaves the contract without owner. It will not be possible to call `onlyOwner` functions anymore. Can only be called by the current owner. NOTE: Renouncing ownership will leave the contract without an owner, thereby removing any functionality that is only available to the owner."
      },
      "transferOwnership(address)": {
        "details": "Transfers ownership of the contract to a new account (`newOwner`). Can only be called by the current owner."
      }
    },
    "version": 1
  },
  "userdoc": {
    "kind": "user",
    "methods": {},
    "version": 1
  }
}